{
  "contractName": "Voting",
  "abi": [
    {
      "inputs": [],
      "stateMutability": "nonpayable",
      "type": "constructor"
    },
    {
      "inputs": [],
      "name": "admin",
      "outputs": [
        {
          "internalType": "address",
          "name": "",
          "type": "address"
        }
      ],
      "stateMutability": "view",
      "type": "function",
      "constant": true
    },
    {
      "inputs": [
        {
          "internalType": "uint256",
          "name": "",
          "type": "uint256"
        }
      ],
      "name": "ballots",
      "outputs": [
        {
          "internalType": "uint256",
          "name": "id",
          "type": "uint256"
        },
        {
          "internalType": "string",
          "name": "name",
          "type": "string"
        },
        {
          "internalType": "uint256",
          "name": "end",
          "type": "uint256"
        }
      ],
      "stateMutability": "view",
      "type": "function",
      "constant": true
    },
    {
      "inputs": [],
      "name": "nextBallotId",
      "outputs": [
        {
          "internalType": "uint256",
          "name": "",
          "type": "uint256"
        }
      ],
      "stateMutability": "view",
      "type": "function",
      "constant": true
    },
    {
      "inputs": [
        {
          "internalType": "address",
          "name": "",
          "type": "address"
        }
      ],
      "name": "voters",
      "outputs": [
        {
          "internalType": "bool",
          "name": "",
          "type": "bool"
        }
      ],
      "stateMutability": "view",
      "type": "function",
      "constant": true
    },
    {
      "inputs": [
        {
          "internalType": "address",
          "name": "",
          "type": "address"
        },
        {
          "internalType": "uint256",
          "name": "",
          "type": "uint256"
        }
      ],
      "name": "votes",
      "outputs": [
        {
          "internalType": "bool",
          "name": "",
          "type": "bool"
        }
      ],
      "stateMutability": "view",
      "type": "function",
      "constant": true
    },
    {
      "inputs": [
        {
          "internalType": "uint256",
          "name": "id",
          "type": "uint256"
        }
      ],
      "name": "getBallot",
      "outputs": [
        {
          "components": [
            {
              "internalType": "uint256",
              "name": "id",
              "type": "uint256"
            },
            {
              "internalType": "string",
              "name": "name",
              "type": "string"
            },
            {
              "components": [
                {
                  "internalType": "uint256",
                  "name": "id",
                  "type": "uint256"
                },
                {
                  "internalType": "string",
                  "name": "name",
                  "type": "string"
                },
                {
                  "internalType": "uint256",
                  "name": "votes",
                  "type": "uint256"
                }
              ],
              "internalType": "struct Voting.Choice[]",
              "name": "choices",
              "type": "tuple[]"
            },
            {
              "internalType": "uint256",
              "name": "end",
              "type": "uint256"
            }
          ],
          "internalType": "struct Voting.Ballot",
          "name": "",
          "type": "tuple"
        }
      ],
      "stateMutability": "view",
      "type": "function",
      "constant": true
    },
    {
      "inputs": [
        {
          "internalType": "address[]",
          "name": "_voters",
          "type": "address[]"
        }
      ],
      "name": "addVoters",
      "outputs": [],
      "stateMutability": "nonpayable",
      "type": "function"
    },
    {
      "inputs": [
        {
          "internalType": "string",
          "name": "name",
          "type": "string"
        },
        {
          "internalType": "string[]",
          "name": "_choices",
          "type": "string[]"
        },
        {
          "internalType": "uint256",
          "name": "offset",
          "type": "uint256"
        }
      ],
      "name": "createBallot",
      "outputs": [],
      "stateMutability": "nonpayable",
      "type": "function"
    },
    {
      "inputs": [
        {
          "internalType": "uint256",
          "name": "ballotId",
          "type": "uint256"
        },
        {
          "internalType": "uint256",
          "name": "choiceId",
          "type": "uint256"
        }
      ],
      "name": "vote",
      "outputs": [],
      "stateMutability": "nonpayable",
      "type": "function"
    },
    {
      "inputs": [
        {
          "internalType": "uint256",
          "name": "ballotId",
          "type": "uint256"
        }
      ],
      "name": "results",
      "outputs": [
        {
          "components": [
            {
              "internalType": "uint256",
              "name": "id",
              "type": "uint256"
            },
            {
              "internalType": "string",
              "name": "name",
              "type": "string"
            },
            {
              "internalType": "uint256",
              "name": "votes",
              "type": "uint256"
            }
          ],
          "internalType": "struct Voting.Choice[]",
          "name": "",
          "type": "tuple[]"
        }
      ],
      "stateMutability": "view",
      "type": "function",
      "constant": true
    }
  ],
  "bytecode": "0x608060405234801561001057600080fd5b5033600360006101000a81548173ffffffffffffffffffffffffffffffffffffffff021916908373ffffffffffffffffffffffffffffffffffffffff160217905550611722806100616000396000f3fe608060405234801561001057600080fd5b506004361061009e5760003560e01c8063a3ec138d11610066578063a3ec138d1461016d578063b384abef1461019d578063dc6bfbb5146101b9578063f851a440146101d7578063f9d5ee75146101f55761009e565b80631b0c27da146100a357806320faae8e146100d35780635c632b38146100ef5780638203373a146101215780639f2524ee1461013d575b600080fd5b6100bd60048036038101906100b89190610f3b565b610225565b6040516100ca91906113d3565b60405180910390f35b6100ed60048036038101906100e89190610ebc565b6103a9565b005b61010960048036038101906101049190610f3b565b610578565b604051610118939291906114ed565b60405180910390f35b61013b60048036038101906101369190610e77565b61063a565b005b61015760048036038101906101529190610e3b565b610761565b60405161016491906113f5565b60405180910390f35b61018760048036038101906101829190610e12565b610790565b60405161019491906113f5565b60405180910390f35b6101b760048036038101906101b29190610f64565b6107b0565b005b6101c16109ed565b6040516101ce91906114d2565b60405180910390f35b6101df6109f3565b6040516101ec91906113b8565b60405180910390f35b61020f600480360381019061020a9190610f3b565b610a19565b60405161021c91906114b0565b60405180910390f35b60606001600083815260200190815260200160002060030154421015610280576040517f08c379a000000000000000000000000000000000000000000000000000000000815260040161027790611490565b60405180910390fd5b60016000838152602001908152602001600020600201805480602002602001604051908101604052809291908181526020016000905b8282101561039e578382906000526020600020906003020160405180606001604052908160008201548152602001600182018054600181600116156101000203166002900480601f01602080910402602001604051908101604052809291908181526020018280546001816001161561010002031660029004801561037c5780601f106103515761010080835404028352916020019161037c565b820191906000526020600020905b81548152906001019060200180831161035f57829003601f168201915b50505050508152602001600282015481525050815260200190600101906102b6565b505050509050919050565b600360009054906101000a900473ffffffffffffffffffffffffffffffffffffffff1673ffffffffffffffffffffffffffffffffffffffff163373ffffffffffffffffffffffffffffffffffffffff1614610439576040517f08c379a000000000000000000000000000000000000000000000000000000000815260040161043090611450565b60405180910390fd5b60025460016000600254815260200190815260200160002060000181905550826001600060025481526020019081526020016000206001019080519060200190610484929190610c11565b508042016001600060025481526020019081526020016000206003018190555060005b82518110156105605760016000600254815260200190815260200160002060020160405180606001604052808381526020018584815181106104e557fe5b6020026020010151815260200160008152509080600181540180825580915050600190039060005260206000209060030201600090919091909150600082015181600001556020820151816001019080519060200190610546929190610c11565b5060408201518160020155505080806001019150506104a7565b50600260008154809291906001019190505550505050565b6001602052806000526040600020600091509050806000015490806001018054600181600116156101000203166002900480601f01602080910402602001604051908101604052809291908181526020018280546001816001161561010002031660029004801561062a5780601f106105ff5761010080835404028352916020019161062a565b820191906000526020600020905b81548152906001019060200180831161060d57829003601f168201915b5050505050908060030154905083565b600360009054906101000a900473ffffffffffffffffffffffffffffffffffffffff1673ffffffffffffffffffffffffffffffffffffffff163373ffffffffffffffffffffffffffffffffffffffff16146106ca576040517f08c379a00000000000000000000000000000000000000000000000000000000081526004016106c190611450565b60405180910390fd5b60005b8282905081101561075c5760016000808585858181106106e957fe5b90506020020160208101906106fe9190610e12565b73ffffffffffffffffffffffffffffffffffffffff1673ffffffffffffffffffffffffffffffffffffffff16815260200190815260200160002060006101000a81548160ff02191690831515021790555080806001019150506106cd565b505050565b60046020528160005260406000206020528060005260406000206000915091509054906101000a900460ff1681565b60006020528060005260406000206000915054906101000a900460ff1681565b600115156000803373ffffffffffffffffffffffffffffffffffffffff1673ffffffffffffffffffffffffffffffffffffffff16815260200190815260200160002060009054906101000a900460ff16151514610842576040517f08c379a000000000000000000000000000000000000000000000000000000000815260040161083990611470565b60405180910390fd5b60001515600460003373ffffffffffffffffffffffffffffffffffffffff1673ffffffffffffffffffffffffffffffffffffffff168152602001908152602001600020600084815260200190815260200160002060009054906101000a900460ff161515146108e6576040517f08c379a00000000000000000000000000000000000000000000000000000000081526004016108dd90611410565b60405180910390fd5b6001600083815260200190815260200160002060030154421061093e576040517f08c379a000000000000000000000000000000000000000000000000000000000815260040161093590611430565b60405180910390fd5b6001600460003373ffffffffffffffffffffffffffffffffffffffff1673ffffffffffffffffffffffffffffffffffffffff168152602001908152602001600020600084815260200190815260200160002060006101000a81548160ff0219169083151502179055506001600083815260200190815260200160002060020181815481106109c857fe5b9060005260206000209060030201600201600081548092919060010191905055505050565b60025481565b600360009054906101000a900473ffffffffffffffffffffffffffffffffffffffff1681565b610a21610c91565b6001600083815260200190815260200160002060405180608001604052908160008201548152602001600182018054600181600116156101000203166002900480601f016020809104026020016040519081016040528092919081815260200182805460018160011615610100020316600290048015610ae25780601f10610ab757610100808354040283529160200191610ae2565b820191906000526020600020905b815481529060010190602001808311610ac557829003601f168201915b5050505050815260200160028201805480602002602001604051908101604052809291908181526020016000905b82821015610bf8578382906000526020600020906003020160405180606001604052908160008201548152602001600182018054600181600116156101000203166002900480601f016020809104026020016040519081016040528092919081815260200182805460018160011615610100020316600290048015610bd65780601f10610bab57610100808354040283529160200191610bd6565b820191906000526020600020905b815481529060010190602001808311610bb957829003601f168201915b5050505050815260200160028201548152505081526020019060010190610b10565b5050505081526020016003820154815250509050919050565b828054600181600116156101000203166002900490600052602060002090601f016020900481019282601f10610c5257805160ff1916838001178555610c80565b82800160010185558215610c80579182015b82811115610c7f578251825591602001919060010190610c64565b5b509050610c8d9190610cb9565b5090565b6040518060800160405280600081526020016060815260200160608152602001600081525090565b5b80821115610cd2576000816000905550600101610cba565b5090565b600081359050610ce5816116be565b92915050565b60008083601f840112610cfd57600080fd5b8235905067ffffffffffffffff811115610d1657600080fd5b602083019150836020820283011115610d2e57600080fd5b9250929050565b600082601f830112610d4657600080fd5b8135610d59610d5482611558565b61152b565b9150818183526020840193506020810190508360005b83811015610d9f5781358601610d858882610da9565b845260208401935060208301925050600181019050610d6f565b5050505092915050565b600082601f830112610dba57600080fd5b8135610dcd610dc882611580565b61152b565b91508082526020830160208301858383011115610de957600080fd5b610df483828461166b565b50505092915050565b600081359050610e0c816116d5565b92915050565b600060208284031215610e2457600080fd5b6000610e3284828501610cd6565b91505092915050565b60008060408385031215610e4e57600080fd5b6000610e5c85828601610cd6565b9250506020610e6d85828601610dfd565b9150509250929050565b60008060208385031215610e8a57600080fd5b600083013567ffffffffffffffff811115610ea457600080fd5b610eb085828601610ceb565b92509250509250929050565b600080600060608486031215610ed157600080fd5b600084013567ffffffffffffffff811115610eeb57600080fd5b610ef786828701610da9565b935050602084013567ffffffffffffffff811115610f1457600080fd5b610f2086828701610d35565b9250506040610f3186828701610dfd565b9150509250925092565b600060208284031215610f4d57600080fd5b6000610f5b84828501610dfd565b91505092915050565b60008060408385031215610f7757600080fd5b6000610f8585828601610dfd565b9250506020610f9685828601610dfd565b9150509250929050565b6000610fac838361134a565b905092915050565b610fbd81611623565b82525050565b6000610fce826115bc565b610fd881856115df565b935083602082028501610fea856115ac565b8060005b8581101561102657848403895281516110078582610fa0565b9450611012836115d2565b925060208a01995050600181019050610fee565b50829750879550505050505092915050565b6000611043826115bc565b61104d81856115f0565b93508360208202850161105f856115ac565b8060005b8581101561109b578484038952815161107c8582610fa0565b9450611087836115d2565b925060208a01995050600181019050611063565b50829750879550505050505092915050565b6110b681611635565b82525050565b60006110c7826115c7565b6110d18185611601565b93506110e181856020860161167a565b6110ea816116ad565b840191505092915050565b6000611100826115c7565b61110a8185611612565b935061111a81856020860161167a565b611123816116ad565b840191505092915050565b600061113b602583611612565b91507f766f7465722063616e206f6e6c7920766f7465206f6e636520666f722061206260008301527f616c6c6f740000000000000000000000000000000000000000000000000000006020830152604082019050919050565b60006111a1602383611612565b91507f63616e206f6e6c7920766f746520756e74696c2062616c6c6f7420656e64206460008301527f61746500000000000000000000000000000000000000000000000000000000006020830152604082019050919050565b6000611207600a83611612565b91507f6f6e6c792061646d696e000000000000000000000000000000000000000000006000830152602082019050919050565b6000611247601483611612565b91507f6f6e6c7920766f746572732063616e20766f74650000000000000000000000006000830152602082019050919050565b6000611287602e83611612565b91507f63616e6e6f7420736565207468652062616c6c6f7420726573756c742062656660008301527f6f72652062616c6c6f7420656e640000000000000000000000000000000000006020830152604082019050919050565b60006080830160008301516112f8600086018261139a565b506020830151848203602086015261131082826110bc565b9150506040830151848203604086015261132a8282610fc3565b915050606083015161133f606086018261139a565b508091505092915050565b6000606083016000830151611362600086018261139a565b506020830151848203602086015261137a82826110bc565b915050604083015161138f604086018261139a565b508091505092915050565b6113a381611661565b82525050565b6113b281611661565b82525050565b60006020820190506113cd6000830184610fb4565b92915050565b600060208201905081810360008301526113ed8184611038565b905092915050565b600060208201905061140a60008301846110ad565b92915050565b600060208201905081810360008301526114298161112e565b9050919050565b6000602082019050818103600083015261144981611194565b9050919050565b60006020820190508181036000830152611469816111fa565b9050919050565b600060208201905081810360008301526114898161123a565b9050919050565b600060208201905081810360008301526114a98161127a565b9050919050565b600060208201905081810360008301526114ca81846112e0565b905092915050565b60006020820190506114e760008301846113a9565b92915050565b600060608201905061150260008301866113a9565b818103602083015261151481856110f5565b905061152360408301846113a9565b949350505050565b6000604051905081810181811067ffffffffffffffff8211171561154e57600080fd5b8060405250919050565b600067ffffffffffffffff82111561156f57600080fd5b602082029050602081019050919050565b600067ffffffffffffffff82111561159757600080fd5b601f19601f8301169050602081019050919050565b6000819050602082019050919050565b600081519050919050565b600081519050919050565b6000602082019050919050565b600082825260208201905092915050565b600082825260208201905092915050565b600082825260208201905092915050565b600082825260208201905092915050565b600061162e82611641565b9050919050565b60008115159050919050565b600073ffffffffffffffffffffffffffffffffffffffff82169050919050565b6000819050919050565b82818337600083830152505050565b60005b8381101561169857808201518184015260208101905061167d565b838111156116a7576000848401525b50505050565b6000601f19601f8301169050919050565b6116c781611623565b81146116d257600080fd5b50565b6116de81611661565b81146116e957600080fd5b5056fea2646970667358221220d4f60c5e63791bdacf3feb3950592e2cef8cf66561fd3496dd32e91dd51a055b64736f6c63430007000033",
  "immutableReferences": {},
  "source": "//SPDX-License-Identifier: MIT\n\npragma solidity ^0.7.0;\npragma experimental ABIEncoderV2;\n\ncontract Voting {\n    mapping(address => bool) public voters;\n    struct Choice {\n        uint256 id;\n        string name;\n        uint256 votes;\n    }\n    struct Ballot {\n        uint256 id;\n        string name;\n        Choice[] choices;\n        uint256 end;\n    }\n    mapping(uint256 => Ballot) public ballots;\n    uint256 public nextBallotId;\n    address public admin;\n    mapping(address => mapping(uint256 => bool)) public votes;\n\n    constructor() public {\n        admin = msg.sender;\n    }\n\n    function getBallot(uint256 id) external view returns (Ballot memory) {\n        return ballots[id];\n    }\n\n    function addVoters(address[] calldata _voters) external onlyAdmin() {\n        for (uint256 i = 0; i < _voters.length; i++) {\n            voters[_voters[i]] = true;\n        }\n    }\n\n    function createBallot(\n        string memory name,\n        string[] memory _choices,\n        uint256 offset\n    ) public onlyAdmin() {\n        ballots[nextBallotId].id = nextBallotId;\n        ballots[nextBallotId].name = name;\n        ballots[nextBallotId].end = block.timestamp + offset;\n        for (uint256 i = 0; i < _choices.length; i++) {\n            ballots[nextBallotId].choices.push(Choice(i, _choices[i], 0));\n        }\n        nextBallotId++;\n    }\n\n    function vote(uint256 ballotId, uint256 choiceId) external {\n        require(voters[msg.sender] == true, \"only voters can vote\");\n        require(\n            votes[msg.sender][ballotId] == false,\n            \"voter can only vote once for a ballot\"\n        );\n        require(\n            block.timestamp < ballots[ballotId].end,\n            \"can only vote until ballot end date\"\n        );\n        votes[msg.sender][ballotId] = true;\n        ballots[ballotId].choices[choiceId].votes++;\n    }\n\n    function results(uint256 ballotId) external view returns (Choice[] memory) {\n        require(\n            block.timestamp >= ballots[ballotId].end,\n            \"cannot see the ballot result before ballot end\"\n        );\n        return ballots[ballotId].choices;\n    }\n\n    modifier onlyAdmin() {\n        require(msg.sender == admin, \"only admin\");\n        _;\n    }\n}\n",
  "sourcePath": "/Users/maciejmondalski/Desktop/Web-Dev/EatTheBlocks/Dapp30/Voting-DApp/contracts/Voting.sol",
  "compiler": {
    "name": "solc",
    "version": "0.7.0+commit.9e61f92b.Emscripten.clang"
  },
  "schemaVersion": "3.3.2",
  "updatedAt": "2020-12-16T22:48:18.409Z",
  "networkType": "ethereum",
  "devdoc": {
    "kind": "dev",
    "methods": {},
    "version": 1
  },
  "userdoc": {
    "kind": "user",
    "methods": {},
    "version": 1
  }
}